:020000001528C1
:0C00060083123F088A003E0882000800B8
:1000120003208A110A128000840ABE0A0319BF0A49
:08002200C003031D09280800BA
:10002A00802083168601BC01BD0180303D06C000D8
:10003A0080304002031D232817303C020318492848
:10004A003C08C0003D08C100C00DC10D4010400869
:10005A000C3E84000008C100840A0008C200003077
:10006A004206031D3A2801304106031D3F28831228
:10007A0086144128831286100610061406110615E6
:0A008A00BC0A0319BD0A1A28492810
:100100000C30840030308312C0004F30BE0000300D
:06011000BF0009200800F9
:10009E0001340034003400340034003401340034B0
:1000AE00013400340134003401340034003400349F
:1000BE00013400340034003401340034013400348F
:1000CE000034003401340034013400340034003480
:1000DE000034003400340034003400340034003472
:1000EE000134003401340034003400340034003460
:02400E00FA3F77
:00000001FF
