:0200000049298C
:10000600710DF80DF90D7408F8027508031C750FCB
:10001600F902F00DF10D0F30FC00710DF80DF90D20
:100026007408701C1C28F8027508031C750FF90269
:100036002128F80775080318750FF907F00DF10D5B
:10004600FC0B102870182D287408F807750803187B
:08005600750FF9070000080016
:10005E0083120313FB01FA01F9018030F800F10C51
:10006E00F00C031C43287408F90775080318750F64
:10007E00FA070318FB0A0310F01F4B287408FA073F
:10008E0075080318750FFB07FB0CFA0CF90CF80C2E
:10009E00031C36287B08F3007A08F2007908F10079
:0600AE007808F0000800D4
:1000B400831203137408003A031D69287508003A73
:1000C400031D6928FF30F0007F30F100C22883123D
:1000D4000313FD01F901F8017108700403190034D8
:1000E40071087506FA00FA1BFD09FB01F51F7F284C
:1000F400F409F509F40A0319F50AF11F8628F00931
:10010400F109F00A0319F10A71087504FA00FA1BDF
:100114009B2803207B18AE28FD1F0034F009F10949
:10012400F00A0319F10AF809F909F80A0319F90A96
:100134000034F51FAA28F11BA6287108F9007008DD
:10014400F800F101F0018E28F101F001F00A003409
:10015400F109F009FB0A8B28F80A0319F90A740853
:100164007802031D8E2875087902031D8E28F90173
:10017400F801F00A0319F10AF11F8E280000FF3478
:02018400080071
:0E0186008312031321088A002008820008005B
:10019400E83083120313F4000330F5002408F00060
:1001A4002508F1005A207008A2007108A300E83065
:1001B400F4000330F5002F2070082402AC0071080D
:1001C400031C013E2502AD006430F4000030F5004C
:1001D4002C08F0002D08F1005A207008A6007108C0
:1001E400A7006430F4000030F5002F207008AC0242
:1001F400031CAD037108AD020A30F4000030F500B1
:100204002C08F0002D08F1005A207008A80071088D
:10021400A9000A30F4000030F5002F2070082C02E9
:0E022400AA007108031C013E2D02AB00080069
:10023200C3208A110A128000840AA00A0319A10AA3
:08024200F003031D1929080057
:10024A00043083120313F1002608F0007108031921
:10025A003229F00D7010FF3E2C2970082204870005
:10026A000430F1002A08F000710803194029F00D42
:0E027A007010FF3E3A29700828048800080022
:0A02880083160313870188010800A4
:1002920083120313A401A5018030273AF0008030B5
:1002A20025067002031D572924080F3C031C6E29E2
:1002B2004421CA2025210630FB001330FC00AD305A
:1002C200FD00FD0B6229FC0B6229FB0B6229000079
:0C02D2000000A40A0319A50A4D296E299A
:02400E007A3BFB
:00000001FF
