:020000001528C1
:0C000600831219088A0018088200080004
:1000120003208A110A128000840A980A0319990A95
:08002200C003031D09280800BA
:10002A00663083128C008D014F308E008F015B3059
:10003A009000910106309200930183168601831283
:10004A0086019601970180301706C0008030400271
:10005A00031D31280430160203187928073094004A
:10006A000030950080301506C00080304002031D24
:10007A00402800301402031C75281608C00017080F
:10008A00C100C00DC10D401040080C3E8400140888
:10009A00C2000130C0000030C100420803195A28CA
:1000AA00C00DC10D4010FF3E532840080005C20094
:1000BA00840A00084105C30000304306031D67286F
:1000CA000030420603196B2886146C288610061025
:1000DA0006140611061501309402031C95033728ED
:0A00EA00960A0319970A28287928BE
:02400E00FA3F77
:00000001FF
