:020000001528C1
:0C000600831221088A00200882000800F4
:1000120003208A110A128000840AA00A0319A10A85
:08002200C003031D09280800BA
:10002A003F3083128C008D0106308E008F015B30C9
:10003A00900091014F30920093016630940095012F
:10004A006D30960097017D309800990107309A002B
:10005A009B017F309C009D016F309E009F0183169B
:10006A0085018601A201A3018030C00080302306E9
:10007A004002031D42282208093C031C8428A401CB
:10008A00A5018030C000803025064002031D4F289C
:10009A002408093C031C80282208C0002308C10048
:1000AA00C00DC10D401040080C3E840000088312A8
:1000BA008600051005142408C0002508C100C00DDB
:1000CA00C10D401040080C3E8400000886008510CF
:1000DA0085140630CB001330CC00AD30CD00CD0BEB
:1000EA007428CC0B7428CB0B742800000000A40AD7
:1000FA000319A50A4628A20A0319A30A392884283B
:02400E00FA3F77
:00000001FF
