:020000001628C0
:0E0006008312031349088A004808820008008C
:1000140003208A110A128000840AC80A0319C90A33
:08002400F003031D0A28080087
:10002C00922083160313860187018312CA01CB0128
:10003C008030F00080304B067002031D27284A08E0
:10004C00093C031C6428CC01CD018030F0008030C9
:10005C004D067002031D34284C08093C031C602813
:10006C004A08F0004B08F100F00DF10D701070080B
:10007C00203E8400000886004C08F0004D08F1007A
:10008C00F00DF10D70107008343E840000088700EC
:10009C000630FB001330FC00AD30FD00FD0B542886
:1000AC00FC0B5428FB0B542800000000CC0A03194D
:0E00BC00CD0A2B28CA0A0319CB0A1E28642875
:1001240020308400283083120313F0006A30C800A2
:080134000030C9000A20080098
:1000D4003F340034063400345B3400344F3400348D
:1000E400663400346D3400347D3400340734003415
:0800F4007F3400346F34003446
:1000FC00C0340034F9340034A4340034B034003447
:10010C00993400349234003482340034F83400349E
:08011C008034003490340034FB
:02400E007A3BFB
:00000001FF
